:020000040000FA
:040000001BEF00F002
:020004000000FA
:0200080008D01E
:0200180001D015
:06001A001100D8CF61F0D7
:10002000E8CF60F0E0CF62F062C0E0FF60C0E8FFC0
:1000300061C0D8FF1000956A946A829478EC00F051
:10004000380E68EC00F078EC00F00E0E68EC00F072
:1000500078EC00F0010E68EC00F078EC00F0060E91
:1000600068EC00F078EC00F0840E68EC00F078ECBE
:1000700000F0410E70EC00F078EC00F0520E70ECE5
:1000800000F078EC00F0480E70EC00F078EC00F036
:10009000410E70EC00F078EC00F04D0E70EC00F0CA
:1000A00078EC00F0200E70EC00F078EC00F0420EDE
:1000B00070EC00F078EC00F0520E70EC00F078EC90
:1000C00000F04F0E70EC00F078EC00F08270FED77C
:1000D000836E82908292828478EC00F08294120087
:1000E000836E82808292828478EC00F08294120087
:0E00F000FF0E636F000000006307FCE11200CA
:0200000400F00A
:1000000054657374204461746100010203040500A7
:00000001FF
